{
  "contractName": "StakingRewards",
  "abi": [
    {
      "inputs": [
        {
          "internalType": "address",
          "name": "_stakingToken",
          "type": "address"
        },
        {
          "internalType": "address",
          "name": "_rewardsToken",
          "type": "address"
        }
      ],
      "stateMutability": "nonpayable",
      "type": "constructor"
    },
    {
      "inputs": [],
      "name": "lastUpdateTime",
      "outputs": [
        {
          "internalType": "uint256",
          "name": "",
          "type": "uint256"
        }
      ],
      "stateMutability": "view",
      "type": "function"
    },
    {
      "inputs": [],
      "name": "rewardPerTokenStored",
      "outputs": [
        {
          "internalType": "uint256",
          "name": "",
          "type": "uint256"
        }
      ],
      "stateMutability": "view",
      "type": "function"
    },
    {
      "inputs": [],
      "name": "rewardRate",
      "outputs": [
        {
          "internalType": "uint256",
          "name": "",
          "type": "uint256"
        }
      ],
      "stateMutability": "view",
      "type": "function"
    },
    {
      "inputs": [
        {
          "internalType": "address",
          "name": "",
          "type": "address"
        }
      ],
      "name": "rewards",
      "outputs": [
        {
          "internalType": "uint256",
          "name": "",
          "type": "uint256"
        }
      ],
      "stateMutability": "view",
      "type": "function"
    },
    {
      "inputs": [],
      "name": "rewardsToken",
      "outputs": [
        {
          "internalType": "contract IERC20",
          "name": "",
          "type": "address"
        }
      ],
      "stateMutability": "view",
      "type": "function"
    },
    {
      "inputs": [],
      "name": "stakingToken",
      "outputs": [
        {
          "internalType": "contract IERC20",
          "name": "",
          "type": "address"
        }
      ],
      "stateMutability": "view",
      "type": "function"
    },
    {
      "inputs": [
        {
          "internalType": "address",
          "name": "",
          "type": "address"
        }
      ],
      "name": "userRewardPerTokenPaid",
      "outputs": [
        {
          "internalType": "uint256",
          "name": "",
          "type": "uint256"
        }
      ],
      "stateMutability": "view",
      "type": "function"
    },
    {
      "inputs": [],
      "name": "rewardPerToken",
      "outputs": [
        {
          "internalType": "uint256",
          "name": "",
          "type": "uint256"
        }
      ],
      "stateMutability": "view",
      "type": "function"
    },
    {
      "inputs": [
        {
          "internalType": "address",
          "name": "account",
          "type": "address"
        }
      ],
      "name": "earned",
      "outputs": [
        {
          "internalType": "uint256",
          "name": "",
          "type": "uint256"
        }
      ],
      "stateMutability": "view",
      "type": "function"
    },
    {
      "inputs": [
        {
          "internalType": "uint256",
          "name": "_amount",
          "type": "uint256"
        }
      ],
      "name": "stake",
      "outputs": [],
      "stateMutability": "nonpayable",
      "type": "function"
    },
    {
      "inputs": [
        {
          "internalType": "uint256",
          "name": "_amount",
          "type": "uint256"
        }
      ],
      "name": "withdraw",
      "outputs": [],
      "stateMutability": "nonpayable",
      "type": "function"
    },
    {
      "inputs": [],
      "name": "getReward",
      "outputs": [],
      "stateMutability": "nonpayable",
      "type": "function"
    }
  ],
  "bytecode": "0x6080604052606460025534801561001557600080fd5b5060405162000f0638038062000f0683398181016040528101906100399190610124565b81600160006101000a81548173ffffffffffffffffffffffffffffffffffffffff021916908373ffffffffffffffffffffffffffffffffffffffff160217905550806000806101000a81548173ffffffffffffffffffffffffffffffffffffffff021916908373ffffffffffffffffffffffffffffffffffffffff1602179055505050610164565b600080fd5b600073ffffffffffffffffffffffffffffffffffffffff82169050919050565b60006100f1826100c6565b9050919050565b610101816100e6565b811461010c57600080fd5b50565b60008151905061011e816100f8565b92915050565b6000806040838503121561013b5761013a6100c1565b5b60006101498582860161010f565b925050602061015a8582860161010f565b9150509250929050565b610d9280620001746000396000f3fe608060405234801561001057600080fd5b50600436106100b35760003560e01c80638b876347116100715780638b8763471461017a578063a694fc3a146101aa578063c8f33c91146101c6578063cd3daf9d146101e4578063d1af0c7d14610202578063df136d6514610220576100b3565b80628cc262146100b85780630700037d146100e85780632e1a7d4d146101185780633d18b9121461013457806372f702f31461013e5780637b0a47ee1461015c575b600080fd5b6100d260048036038101906100cd91906109e1565b61023e565b6040516100df9190610a27565b60405180910390f35b61010260048036038101906100fd91906109e1565b610340565b60405161010f9190610a27565b60405180910390f35b610132600480360381019061012d9190610a6e565b610358565b005b61013c610514565b005b6101466106e8565b6040516101539190610afa565b60405180910390f35b61016461070e565b6040516101719190610a27565b60405180910390f35b610194600480360381019061018f91906109e1565b610714565b6040516101a19190610a27565b60405180910390f35b6101c460048036038101906101bf9190610a6e565b61072c565b005b6101ce6108ea565b6040516101db9190610a27565b60405180910390f35b6101ec6108f0565b6040516101f99190610a27565b60405180910390f35b61020a610954565b6040516102179190610afa565b60405180910390f35b610228610978565b6040516102359190610a27565b60405180910390f35b6000600660008373ffffffffffffffffffffffffffffffffffffffff1673ffffffffffffffffffffffffffffffffffffffff16815260200190815260200160002054670de0b6b3a7640000600560008573ffffffffffffffffffffffffffffffffffffffff1673ffffffffffffffffffffffffffffffffffffffff168152602001908152602001600020546102d16108f0565b6102db9190610b44565b600860008673ffffffffffffffffffffffffffffffffffffffff1673ffffffffffffffffffffffffffffffffffffffff168152602001908152602001600020546103259190610b78565b61032f9190610c01565b6103399190610c32565b9050919050565b60066020528060005260406000206000915090505481565b336103616108f0565b600481905550426003819055506103778161023e565b600660008373ffffffffffffffffffffffffffffffffffffffff1673ffffffffffffffffffffffffffffffffffffffff16815260200190815260200160002081905550600454600560008373ffffffffffffffffffffffffffffffffffffffff1673ffffffffffffffffffffffffffffffffffffffff1681526020019081526020016000208190555081600760008282546104129190610b44565b9250508190555081600860003373ffffffffffffffffffffffffffffffffffffffff1673ffffffffffffffffffffffffffffffffffffffff16815260200190815260200160002060008282546104689190610b44565b92505081905550600160009054906101000a900473ffffffffffffffffffffffffffffffffffffffff1673ffffffffffffffffffffffffffffffffffffffff1663a9059cbb33846040518363ffffffff1660e01b81526004016104cc929190610c97565b6020604051808303816000875af11580156104eb573d6000803e3d6000fd5b505050506040513d601f19601f8201168201806040525081019061050f9190610cf8565b505050565b3361051d6108f0565b600481905550426003819055506105338161023e565b600660008373ffffffffffffffffffffffffffffffffffffffff1673ffffffffffffffffffffffffffffffffffffffff16815260200190815260200160002081905550600454600560008373ffffffffffffffffffffffffffffffffffffffff1673ffffffffffffffffffffffffffffffffffffffff168152602001908152602001600020819055506000600660003373ffffffffffffffffffffffffffffffffffffffff1673ffffffffffffffffffffffffffffffffffffffff1681526020019081526020016000205490506000600660003373ffffffffffffffffffffffffffffffffffffffff1673ffffffffffffffffffffffffffffffffffffffff1681526020019081526020016000208190555060008054906101000a900473ffffffffffffffffffffffffffffffffffffffff1673ffffffffffffffffffffffffffffffffffffffff1663a9059cbb33836040518363ffffffff1660e01b81526004016106a0929190610c97565b6020604051808303816000875af11580156106bf573d6000803e3d6000fd5b505050506040513d601f19601f820116820180604052508101906106e39190610cf8565b505050565b600160009054906101000a900473ffffffffffffffffffffffffffffffffffffffff1681565b60025481565b60056020528060005260406000206000915090505481565b336107356108f0565b6004819055504260038190555061074b8161023e565b600660008373ffffffffffffffffffffffffffffffffffffffff1673ffffffffffffffffffffffffffffffffffffffff16815260200190815260200160002081905550600454600560008373ffffffffffffffffffffffffffffffffffffffff1673ffffffffffffffffffffffffffffffffffffffff1681526020019081526020016000208190555081600760008282546107e69190610c32565b9250508190555081600860003373ffffffffffffffffffffffffffffffffffffffff1673ffffffffffffffffffffffffffffffffffffffff168152602001908152602001600020600082825461083c9190610c32565b92505081905550600160009054906101000a900473ffffffffffffffffffffffffffffffffffffffff1673ffffffffffffffffffffffffffffffffffffffff166323b872dd3330856040518463ffffffff1660e01b81526004016108a293929190610d25565b6020604051808303816000875af11580156108c1573d6000803e3d6000fd5b505050506040513d601f19601f820116820180604052508101906108e59190610cf8565b505050565b60035481565b6000806007541415610906576004549050610951565b600754670de0b6b3a7640000600254600354426109239190610b44565b61092d9190610b78565b6109379190610b78565b6109419190610c01565b60045461094e9190610c32565b90505b90565b60008054906101000a900473ffffffffffffffffffffffffffffffffffffffff1681565b60045481565b600080fd5b600073ffffffffffffffffffffffffffffffffffffffff82169050919050565b60006109ae82610983565b9050919050565b6109be816109a3565b81146109c957600080fd5b50565b6000813590506109db816109b5565b92915050565b6000602082840312156109f7576109f661097e565b5b6000610a05848285016109cc565b91505092915050565b6000819050919050565b610a2181610a0e565b82525050565b6000602082019050610a3c6000830184610a18565b92915050565b610a4b81610a0e565b8114610a5657600080fd5b50565b600081359050610a6881610a42565b92915050565b600060208284031215610a8457610a8361097e565b5b6000610a9284828501610a59565b91505092915050565b6000819050919050565b6000610ac0610abb610ab684610983565b610a9b565b610983565b9050919050565b6000610ad282610aa5565b9050919050565b6000610ae482610ac7565b9050919050565b610af481610ad9565b82525050565b6000602082019050610b0f6000830184610aeb565b92915050565b7f4e487b7100000000000000000000000000000000000000000000000000000000600052601160045260246000fd5b6000610b4f82610a0e565b9150610b5a83610a0e565b925082821015610b6d57610b6c610b15565b5b828203905092915050565b6000610b8382610a0e565b9150610b8e83610a0e565b9250817fffffffffffffffffffffffffffffffffffffffffffffffffffffffffffffffff0483118215151615610bc757610bc6610b15565b5b828202905092915050565b7f4e487b7100000000000000000000000000000000000000000000000000000000600052601260045260246000fd5b6000610c0c82610a0e565b9150610c1783610a0e565b925082610c2757610c26610bd2565b5b828204905092915050565b6000610c3d82610a0e565b9150610c4883610a0e565b9250827fffffffffffffffffffffffffffffffffffffffffffffffffffffffffffffffff03821115610c7d57610c7c610b15565b5b828201905092915050565b610c91816109a3565b82525050565b6000604082019050610cac6000830185610c88565b610cb96020830184610a18565b9392505050565b60008115159050919050565b610cd581610cc0565b8114610ce057600080fd5b50565b600081519050610cf281610ccc565b92915050565b600060208284031215610d0e57610d0d61097e565b5b6000610d1c84828501610ce3565b91505092915050565b6000606082019050610d3a6000830186610c88565b610d476020830185610c88565b610d546040830184610a18565b94935050505056fea2646970667358221220c4fbd31fed25e1a5c9efb028f6d7071eebcbf3c59455f6899855e2816c10956d64736f6c634300080a0033",
  "immutableReferences": {},
  "source": "pragma solidity ^0.8;\r\n\r\ncontract StakingRewards {\r\n    IERC20 public rewardsToken;\r\n    IERC20 public stakingToken;\r\n\r\n    uint public rewardRate = 100;\r\n    uint public lastUpdateTime;\r\n    uint public rewardPerTokenStored;\r\n\r\n    mapping(address => uint) public userRewardPerTokenPaid;\r\n    mapping(address => uint) public rewards;\r\n\r\n    uint private _totalSupply;\r\n    mapping(address => uint) private _balances;\r\n\r\n    constructor(address _stakingToken, address _rewardsToken) {\r\n        stakingToken = IERC20(_stakingToken);\r\n        rewardsToken = IERC20(_rewardsToken);\r\n    }\r\n\r\n    function rewardPerToken() public view returns (uint) {\r\n        if (_totalSupply == 0) {\r\n            return rewardPerTokenStored;\r\n        }\r\n        return\r\n            rewardPerTokenStored +\r\n            (((block.timestamp - lastUpdateTime) * rewardRate * 1e18) / _totalSupply);\r\n    }\r\n\r\n    function earned(address account) public view returns (uint) {\r\n        return\r\n            ((_balances[account] *\r\n                (rewardPerToken() - userRewardPerTokenPaid[account])) / 1e18) +\r\n            rewards[account];\r\n    }\r\n\r\n    modifier updateReward(address account) {\r\n        rewardPerTokenStored = rewardPerToken();\r\n        lastUpdateTime = block.timestamp;\r\n\r\n        rewards[account] = earned(account);\r\n        userRewardPerTokenPaid[account] = rewardPerTokenStored;\r\n        _;\r\n    }\r\n\r\n    function stake(uint _amount) external updateReward(msg.sender) {\r\n        _totalSupply += _amount;\r\n        _balances[msg.sender] += _amount;\r\n        stakingToken.transferFrom(msg.sender, address(this), _amount);\r\n    }\r\n\r\n    function withdraw(uint _amount) external updateReward(msg.sender) {\r\n        _totalSupply -= _amount;\r\n        _balances[msg.sender] -= _amount;\r\n        stakingToken.transfer(msg.sender, _amount);\r\n    }\r\n\r\n    function getReward() external updateReward(msg.sender) {\r\n        uint reward = rewards[msg.sender];\r\n        rewards[msg.sender] = 0;\r\n        rewardsToken.transfer(msg.sender, reward);\r\n    }\r\n}\r\n\r\ninterface IERC20 {\r\n    function totalSupply() external view returns (uint);\r\n\r\n    function balanceOf(address account) external view returns (uint);\r\n\r\n    function transfer(address recipient, uint amount) external returns (bool);\r\n\r\n    function allowance(address owner, address spender) external view returns (uint);\r\n\r\n    function approve(address spender, uint amount) external returns (bool);\r\n\r\n    function transferFrom(\r\n        address sender,\r\n        address recipient,\r\n        uint amount\r\n    ) external returns (bool);\r\n\r\n    event Transfer(address indexed from, address indexed to, uint value);\r\n    event Approval(address indexed owner, address indexed spender, uint value);\r\n}",
  "sourcePath": "C:\\Users\\kiera\\Desktop\\SolCodeTest\\contracts\\Staking.sol",
  "compiler": {
    "name": "solc",
    "version": "0.8.10+commit.fc410830.Emscripten.clang"
  },
  "schemaVersion": "3.4.3",
  "updatedAt": "2022-04-21T18:10:47.013Z",
  "devdoc": {
    "kind": "dev",
    "methods": {},
    "version": 1
  },
  "userdoc": {
    "kind": "user",
    "methods": {},
    "version": 1
  }
}